:100000000C942A000C9468000C943C000C943C0066
:100010000C943C000C943C000C943C000C943C0070
:100020000C943C000C943C000C943C000C943C0060
:100030000C943C000C943C000C943C000C943C0050
:100040000C943C000C943C000C943C000C943C0040
:100050000C943C0011241FBECFE5D8E0DEBFCDBF1D
:1000600020E0A0E6B0E001C01D92A737B207E1F79B
:100070000E942A020C9467060C94000060E081E460
:100080000E94910061E081E40E94910062E081E4BD
:100090000E94910060E082E40E94910061E082E4AD
:1000A0000E94910062E082E40E94910062E582E099
:1000B0000E94850362E084E40E948C008EE40E942A
:1000C000C20381E008950E94B3030E942C01FDCF7A
:1000D0001F920F920FB60F9211242F933F934F93BD
:1000E0005F936F937F938F939F93AF93BF93EF93A0
:1000F000FF930E94F901FF91EF91BF91AF919F9102
:100100008F917F916F915F914F913F912F910F90C0
:100110000FBE0F901F90189540E00E94310281E0C1
:10012000089541E00E94310281E0089541E00E947B
:10013000A90281E0089540E00E94A90281E00895AB
:10014000CF93DF93D82FC62F9A01369527953695F2
:10015000279536952795AFE4BBE10E945806969502
:1001600087959695879596958795809360001092D0
:10017000760019C06C2F8D2F0E94960060E070E011
:1001800086E993E40E94D8036C2F8D2F0E949B0078
:1001900060E070E086E993E40E94D80380917600E5
:1001A0008F5F809376009091760080916000981721
:1001B00008F381E0DF91CF910895EF92FF920F93C2
:1001C0001F93CF93DF93E82EF62ED42FC22F9801E2
:1001D000369527953695279536952795AFE4BBE15B
:1001E0000E9458069695879596958795969587953A
:1001F000809360001092760021C06F2D8E2D0E949A
:1002000096006C2F8D2F0E94960060E070E086E9CA
:1002100093E40E94D8036F2D8E2D0E949B006C2FBB
:100220008D2F0E949B0060E070E086E993E40E94BD
:10023000D803809176008F5F80937600909176004E
:10024000809160009817C8F281E0DF91CF911F91F3
:100250000F91FF90EF9008950F931F93CF931092FB
:1002600062008091630081110EC060E081E40E9411
:10027000960060E070E48CE995E40E94D80360E0A9
:1002800081E40E949B0080916300813089F5C1E088
:10029000C093610062E082E40E949B0008E813E1E1
:1002A00021E042E461E081E40E94DD0060E082E45C
:1002B0000E94960062E081E40E94960060E070E493
:1002C0008CE995E40E94D80362E081E40E949B00DF
:1002D00021E042E461E081E40E94DD00C09362001D
:1002E00060E082E40E949B00109263001092610023
:1002F00080916300811113C08091620081110FC051
:1003000081E08093640048E853E161E081E40E9469
:10031000A0001092640062E082E40E949B00809141
:100320006300813039F5C1E0C093610060E082E490
:100330000E94960062E081E40E94960060E070E412
:100340008CE995E40E94D80362E081E40E949B005E
:1003500008E813E121E042E461E081E40E94DD006D
:10036000C093620060E082E40E949B0010926300F0
:100370001092610080916300811112C0809162002F
:1003800081110EC062E081E40E94960060E070E49A
:100390008CE995E40E94D80362E081E40E949B000E
:1003A00080916300813001F58093610062E081E417
:1003B0000E94960060E070E48CE995E40E94D80306
:1003C00062E081E40E949B0008E813E121E042E43E
:1003D00061E081E40E94DD0060E082E40E949B0015
:1003E000109263001092610081E0CF911F910F91F4
:1003F000089546E650E060E081E40E94210345E66E
:1004000050E062E081E40E94210380916600813027
:1004100021F080916400813061F48091610081114C
:1004200008C081E08093630062E082E40E9496004D
:100430000FC080916500813059F480916100811175
:1004400007C081E08093630060E082E40E94960030
:1004500081E008950E943E000E94630080E090E0E9
:100460000895823429F118F4813439F008958334E1
:10047000D1F1843409F452C00895413059F42AB3BB
:1004800081E090E002C0880F991F6A95E2F7822B05
:100490008ABB089541115CC02AB381E090E002C09C
:1004A000880F991F6A95E2F7809582238ABB089589
:1004B000413059F427B381E090E002C0880F991FC2
:1004C0006A95E2F7822B87BB0895411141C027B39B
:1004D00081E090E002C0880F991F6A95E2F780954D
:1004E000822387BB0895413059F424B381E090E022
:1004F00002C0880F991F6A95E2F7822B84BB08958A
:10050000411126C024B381E090E002C0880F991FFA
:100510006A95E2F78095822384BB0895413059F4AF
:1005200021B381E090E002C0880F991F6A95E2F73D
:10053000822B81BB089541110BC021B381E090E073
:1005400002C0880F991F6A95E2F78095822381BBCC
:100550000895823429F118F4813439F008958334F0
:10056000D1F1843409F452C00895413059F42BB3C9
:1005700081E090E002C0880F991F6A95E2F7822B14
:100580008BBB089541115CC02BB381E090E002C0A9
:10059000880F991F6A95E2F7809582238BBB089597
:1005A000413059F428B381E090E002C0880F991FD0
:1005B0006A95E2F7822B88BB0895411141C028B3A8
:1005C00081E090E002C0880F991F6A95E2F780955C
:1005D000822388BB0895413059F425B381E090E02F
:1005E00002C0880F991F6A95E2F7822B85BB089598
:1005F000411126C025B381E090E002C0880F991F09
:100600006A95E2F78095822385BB0895413059F4BD
:1006100022B381E090E002C0880F991F6A95E2F74B
:10062000822B82BB089541110BC022B381E090E080
:1006300002C0880F991F6A95E2F78095822382BBDA
:100640000895823401F118F4813439F00895833427
:1006500081F1843409F443C0089579B381E090E0D6
:100660009C01062E02C0220F331F0A94E2F7872F47
:1006700090E08223932302C0959587956A95E2F7CF
:10068000FA018083089576B381E090E09C01062E04
:1006900002C0220F331F0A94E2F7872F90E08223D3
:1006A000932302C0959587956A95E2F7FA018083B6
:1006B000089573B381E090E09C01062E02C0220FE2
:1006C000331F0A94E2F7872F90E08223932302C01E
:1006D000959587956A95E2F7FA018083089570B33E
:1006E00081E090E09C01062E02C0220F331F0A9485
:1006F000E2F7872F90E08223932302C09595879598
:100700006A95E2F7FA01808308959FB790689FBFCA
:1007100080936700823019F0833099F00895623534
:1007200039F485B7816085BF85B7826085BF08953C
:100730006634C1F485B78E7F85BF85B7826085BF7B
:100740000895623539F485B7846085BF85B78860C0
:1007500085BF0895663431F485B78B7F85BF85B733
:10076000886085BF089580916700823019F08330DA
:1007700029F008958BB780648BBF08958BB780688C
:100780008BBF08958F3459F018F48E3431F00895EA
:10079000813541F0803749F0089513BE089580E413
:1007A00083BF089588E083BF089588E483BF0895D8
:1007B0008F929F92AF92BF92CF92DF92EF92FF9271
:1007C00020E030E04AE754E40E94E8044B015C0179
:1007D0008DEB97E3A6E8B5E38093720090937300E6
:1007E000A0937400B09375008DEB97E3A6E8B9E38E
:1007F00080936E0090936F00A0937000B09371008F
:100800009C01AD01C501B4010E94E8040E94D1041D
:100810000E945A056B017C0170936D0060936C001F
:100820002DEB37E346E855E3C501B4010E94E80427
:100830004B015C01B60180E090E00E9489059B01BC
:10084000AC01C501B4010E94E8049B01AC0160E069
:1008500070E080E893E40E9464040E945A0560936B
:100860006A0070936B0062BF83B7816083BF109290
:100870006900109268000FC008B600FEFDCF88B76F
:10088000816088BF80916800909169000196909383
:100890006900809368002091680030916900809120
:1008A0006C0090916D002817390730F310926900A1
:1008B0001092680013BEFF90EF90DF90CF90BF9032
:1008C000AF909F908F9008955058BB27AA270E9401
:1008D0007C040C9406060E94F80538F00E94FF057F
:1008E00020F039F49F3F19F426F40C94F5050EF42A
:1008F000E095E7FB0C94C605E92F0E94170658F314
:10090000BA17620773078407950720F079F4A6F5F4
:100910000C9451060EF4E0950B2EBA2FA02D0B016E
:10092000B90190010C01CA01A0011124FF27591B34
:1009300099F0593F50F4503E68F11A16F040A22F3A
:10094000232F342F4427585FF3CF469537952795AB
:10095000A795F0405395C9F77EF41F16BA0B620BAA
:10096000730B840BBAF09150A1F0FF0FBB1F661FF1
:10097000771F881FC2F70EC0BA0F621F731F841F34
:1009800048F4879577956795B795F7959E3F08F05A
:10099000B0CF9395880F08F09927EE0F979587951C
:1009A00008950E94390690F09F3748F4911116F48B
:1009B0000C94520660E070E080E89FE3089526F012
:1009C0001B16611D711D811D0C94CC050C94E7054F
:1009D0000E94FC040C9406060E94FF0558F00E9439
:1009E000F80540F029F45F3F29F00C94C605511139
:1009F0000C9452060C94F5050E94170668F399238F
:100A0000B1F3552391F3951B550BBB27AA2762170A
:100A10007307840738F09F5F5F4F220F331F441F17
:100A2000AA1FA9F335D00E2E3AF0E0E832D091504B
:100A30005040E695001CCAF72BD0FE2F29D0660F38
:100A4000771F881FBB1F261737074807AB07B0E87B
:100A500009F0BB0B802DBF01FF2793585F4F3AF081
:100A60009E3F510578F00C94C6050C9452065F3FEA
:100A7000E4F3983ED4F3869577956795B795F79507
:100A80009F5FC9F7880F911D9695879597F90895EF
:100A9000E1E0660F771F881FBB1F6217730784078B
:100AA000BA0720F0621B730B840BBA0BEE1F88F79A
:100AB000E09508950E941F0688F09F5798F0B92F7F
:100AC0009927B751B0F0E1F0660F771F881F991F83
:100AD0001AF0BA95C9F714C0B13091F00E945106CE
:100AE000B1E008950C945106672F782F8827B85FDE
:100AF00039F0B93FCCF3869577956795B395D9F7DB
:100B00003EF490958095709561957F4F8F4F9F4FE4
:100B10000895E89409C097FB3EF4909580957095F0
:100B200061957F4F8F4F9F4F9923A9F0F92F96E939
:100B3000BB279395F695879577956795B795F111AE
:100B4000F8CFFAF4BB0F11F460FF1BC06F5F7F4F4B
:100B50008F4F9F4F16C0882311F096E911C077235D
:100B600021F09EE8872F762F05C0662371F096E866
:100B7000862F70E060E02AF09A95660F771F881F35
:100B8000DAF7880F9695879597F9089597F99F67F3
:100B900080E870E060E00895882371F4772321F005
:100BA0009850872B762F07C0662311F499270DC024
:100BB0009051862B70E060E02AF09A95660F771FBF
:100BC000881FDAF7880F9695879597F908959F3FC4
:100BD00031F0915020F4879577956795B795880FF8
:100BE000911D9695879597F908959FEF80EC08954C
:100BF00000240A94161617061806090608950024FC
:100C00000A9412161306140605060895092E039475
:100C1000000C11F4882352F0BB0F40F4BF2B11F4E9
:100C200060FF04C06F5F7F4F8F4F9F4F089557FD48
:100C30009058440F551F59F05F3F71F04795880F4A
:100C400097FB991F61F09F3F79F0879508951216E1
:100C500013061406551FF2CF4695F1DF08C016168D
:100C600017061806991FF1CF86957105610508943E
:100C700008950E941F06A0F0BEE7B91788F4BB27AD
:100C80009F3860F41616B11D672F782F8827985F5C
:100C9000F7CF869577956795B11D93959639C8F3EB
:100CA0000895E894BB2766277727CB0197F9089525
:100CB000A29FB001B39FC001A39F700D811D11249D
:100CC000911DB29F700D811D1124911D0895F894FE
:020CD000FFCF54
:00000001FF
